:03000000020030CB
:1000300075818075D00075A000C283C284C285C25C
:100040008678707D0075A880743831583187740FB8
:1000500031583187740131583187740631583187EE
:1000600074803158318790038DE4936009120168E0
:10007000120187A380F390039E74C0120158E49389
:100080006009120168120187A380F375B00FC2B72F
:10009000C2B6C2B5C2B4E5B0540FB40FF1120187B5
:1000A000E5B0540FB40F0280F4120187E5B0540F8D
:1000B000B40F0280E8C2B6D2B7D2B5D2B4E5B0541C
:1000C0000FB40F1AC2B5D2B6D2B4E5B0540FB40F04
:1000D00012C2B4D2B6D2B5E5B0540FB40F0A900331
:1000E00077800A90037B800590037F800013500384
:1000F000A380FAC2D3C2D4E493120168E493B44358
:1001000003020030B453028008C39430F6080200A2
:100110008ED2B7AA72AB71AC70020133BC0003027D
:10012000014C1C7B097A090D8009BB000280ED1B84
:100130007A090DED75F01484A9F0B900031201DFFE
:100140001201A9BA000280E21A0D80E7C283C284BC
:10015000C285D286C2B780F4120176F590C280C201
:1001600081D2823187C28222120176F590D280C27A
:1001700081D282C28222D297C280D281C2821201EF
:1001800087D2822097F622D2D3D2D47B027CFFDCA6
:10019000FEDBFAC2D3C2D422D2D3D2D47B047C8475
:1001A000DCFEDBFAC2D3C2D4227F057E3E900383FD
:1001B000D283D284C285EA93F5A03198D283D285C6
:1001C000C284EB93F5A03198D285D284C283EC939C
:1001D000F5A03198DED7DFD322020376020339C0BF
:1001E000E07401120158C3E57194065008C3E5702C
:1001F000B4000280E7D073E573B400109003ACE460
:100200009360D6120168120187A380F3B4011090A5
:1002100003BCE49360C3120168120187A380F3B4A6
:1002200002109003CDE49360B0120168120187A31D
:1002300080F3B403109003DBE493609D1201681215
:100240000187A380F3B404109003ECE493608A1256
:100250000168120187A380F3B405109003FDE493B5
:1002600060EB120168120187A380F3B406109004BA
:100270000DE49360D8120168120187A380F3B407DC
:100280001090041BE49360C5120168120187A380DB
:10029000F3B4081090042BE49360B21201681201C9
:1002A00087A380F3B4091090043BE493609F12018C
:1002B00068120187A380F3B40A10900449E49360A4
:1002C0008C120168120187A380F3B40B10900459BB
:1002D000E49360EB120168120187A380F3B40C1061
:1002E000900465E49360D8120168120187A380F33B
:1002F000B40D10900473E493607C120168120187BE
:10030000A380F3B40E10900483E493606912016833
:10031000120187A380F3B40F10900494E493605605
:10032000120168120187A380F39004A4E49360464D
:10033000120168120187A380F3D073E573B4001033
:100340009004B0E493602F120168120187A380F338
:10035000B401109004BDE493601C1201681201877F
:10036000A380F3B402109004CEE4936009120168F4
:10037000120187A380F322343332313837363543C4
:100380005330393F065B4F666D7D077F6F54494D93
:100390004520494E205345434F4E44532800494E73
:1003A000203320444947495453293A004B6C6F701D
:1003B00070206973204765726D616E004B6C6F70C1
:1003C00070206C6F76657320687567730052656482
:1003D00073207765617220726564004C4643206823
:1003E0006173203846412043757073004C464320AA
:1003F0006D6F74746F3A20594E57412000476572F3
:10040000726172642069732069636F6E0053616C5E
:100410006168206973207374617200526976616C3F
:100420003A204D616E205574642000416E66696506
:100430006C6420697320686F6D65004C4643203101
:1004400039207469746C657300594E574120736983
:100450006E6365203139303000416E6669656C64C9
:10046000204B6F70004C4643206F776E7320362010
:10047000434C004B6C6F7070206C6F766573204C32
:100480004643004C464320666F756E6465642031B8
:100490003839320046616D6F757320526564732080
:1004A0006B6974004245594F4E442033303053003D
:1004B00043203E20415353454D424C59004C4F4E32
:1004C000474553542053454D4553544552005645D6
:0904D000525920544952454400E0
:00000001FF
