:1000000075817075D00078307A007438914491759C
:10001000740F9144917574019144917574069144E3
:10002000917574809144917502003A020170020149
:10003000A00201FA0201D202022C75B00FC2B7C2AF
:10004000B6C2B5C2B4E5B0540FB40FF130A3DC3082
:10005000A4DC30A5DC30A6DC30A7DC120475E5B0EA
:10006000540FB40F0280E5120475E5B0540FB40FBD
:100070000280D9C2B7D2B6D2B5D2B4E5B0540FB46B
:100080000F2DC2B6D2B7D2B5D2B4E5B0540FB40F6B
:1000900023C2B5D2B7D2B6D2B4E5B0540FB40F195B
:1000A000C2B4D2B7D2B6D2B5E5B0540FB40F0F90E8
:1000B0000528800F90052C800A900530800590055A
:1000C000348000135003A380FAC2D3C2D4E4931245
:1000D0000454E493B42806F6080A02016AB4290A13
:1000E000080A7C00F6080A02016AB42B19E814F920
:1000F000E7B42907762B080A02016A080A7C007611
:100100002B080A02016AB42D19E814F9E7B429078B
:10011000762D080A02016A080A7C00762D080A0278
:10012000016AB42A19E814F9E7B42907762A080AFB
:1001300002016A080A7C00762A080A02016AB42FC2
:1001400019E814F9E7B42907762F080A02016A08AA
:100150000A7C00762F080A02016AC2D3C2D4C39473
:1001600030FBEC75F00AA42BFCF612047502003D7E
:100170001204751204751204751204751204757454
:100180005E120454120475E814F9E7B42907765E88
:10019000080A02003D080A7C00765E080A02003D5B
:1001A000900538E493600A120454120475A3020106
:1001B000A374C0120444120475900549E493600AC4
:1001C000120454120475A30201BC7450F6080A020A
:1001D000003D1204751204751204751204751204A0
:1001E00075120475E814F9E7B429030202310A74A0
:1001F0003D120454120475020231900572E49360BA
:100200000A120454120475A30201FD74C0120444BE
:10021000120475900583E493600A12045412047565
:10022000A30202167447F6080A02003D7401020098
:1002300000E530B4503AE5311204C550187401128B
:100240000444120475900554E4936021120454127E
:100250000475A380F37401120444120475900561BF
:10026000E4936009120454120475A380F302043C61
:10027000B4477CE5328535F01204E4F8A9F0740146
:10028000120444120475900589E493600912045421
:10029000120475A380F3E812051AEC2430120454FA
:1002A000120475ED2430120454120475EE24301239
:1002B000045412047574C01204441204759005921B
:1002C000E4936009120454120475A380F3E9120543
:1002D0001AEC2430120454120475ED243012045424
:1002E000120475EE243012045412047502043C7892
:1002F0003079507581707C00E6B42806C0E00802B1
:10030000036AB4290ED0E0B428040802036AF7098E
:100310000C80F2B42B03020331B42D03020331B479
:100320002A03020331B42F03020331B45E380203FF
:1003300031F5F0E581B4700302035EE5F012048646
:10034000EDFEE581D2D3C2D4F8E6C2D3120486ED25
:10035000FFEFC39E4008D0E0F7090C020333E5F03D
:10036000C0E00802036AF7090C08DA8C8000E58116
:10037000B470028008D0E0F7090C02036E7950E7F0
:10038000B42B0DD0F0D0E01204A7C0E0090203D5D1
:10039000B42D0DD0F0D0E01204AAC0E0090203D5BC
:1003A000B42A0DD0F0D0E01204AEC0E0090203D5AB
:1003B000B42F0DD0F0D0E01204B0C0E0090203D594
:1003C000B45E0DD0F0D0E01204B2C0E0090203D553
:1003D000C0E0098000DCA8D0E08000FF402AEF12D6
:1003E000051A74C0120444120475EC24301204542B
:1003F000120475ED2430120454120475EE243012E8
:10040000045412047502043CEFF40412051A74C07B
:10041000120444120475742D120454120475EC2451
:1004200030120454120475ED243012045412047571
:10043000EE243012045412047502043C30A70280EA
:10044000FB020000120464F590C280C281D2829146
:1004500075C28222120464F590D280C281D2829148
:1004600075C28222D297C280D281C282120475D212
:10047000822097F622D2D3D2D47B327CFFDCFEDB03
:10048000FAC2D3C2D422B45E037D0322B42F037D0B
:100490000222B42A037D0222B42B037D0122B42D53
:1004A000037D01227D002225F022C395F022A422A3
:1004B0008422FFE5F0B4020790059BEF938005903E
:1004C00005ABEF9322C2D3D2D47C02FAEA8CF0843B
:1004D0000CEAC39C6008E5F0B400F1C38001D3C20C
:1004E000D4C2D322C2D3D2D4FEAFF0C395F0500809
:1004F000C016C017D016D017EE8FF0FDACF084E513
:10050000F0B400028003EC80F3ECFAEE8FF0A48AE2
:10051000F084F5F0EAC2D3C2D42275F00A84AEF0BA
:1005200075F00A84ADF0FC22313233343536373879
:10053000393028292B2D2A2F4E554D424552204621
:100540004F52205052494D4500434845434B494E78
:10055000472D20005052494D45204E554D424552A1
:10056000004E4F54205052494D45204E554D424566
:1005700052004E554D4245525320464F522047435C
:10058000442F004C434D3A20004743442049533AFE
:1005900020004C434D2049533A200000010409102B
:1005A0001924314051647990A9C4E10001081B402D
:0205B0007DD8F4
:00000001FF
