:03000000020030CB
:1000300075818075D00075B00075A000743831AE40
:1000400031DD740F31AE31DD740131AE31DD740656
:1000500031AE31DD748031AE31DD75A00075B0FF99
:100060001201FF1201FF1201FF1201FF1201FF90A6
:100070000214E49360091201BE1201DDA380F39023
:10008000022374C01201AEE49360091201BE120192
:10009000DDA380F31201FF74011201AE900231E47E
:1000A0009360091201BE1201DDA380F39002407437
:1000B000C01201AEE49360091201BE1201DDA380FB
:1000C000F31201FF74011201AE90024FE493600934
:1000D0001201BE1201DDA380F390025D74C0120113
:1000E000AEE49360091201BE1201DDA380F3120198
:1000F000FF90026B74011201AEE49360091201BE1D
:100100001201DDA380F390027974C01201AEE49372
:1001100060091201BE1201DDA380F31201FF12017A
:10012000FF1201FF7B199002897A0875B0FEE493F3
:10013000F5A01201EEE5B023F5B0A3DAF1DBE77B21
:10014000199002917A0875B0FEE493F5A01201EEC1
:10015000E5B023F5B0A3DAF1DBE77B199002997AD9
:100160000875B0FEE493F5A01201EEE5B023F5B0FA
:10017000A3DAF1DBE77B199002A17A0875B0FEE4FF
:1001800093F5A01201EEE5B023F5B0A3DAF1DBE7B9
:100190007B199002A97A0875B0FEE493F5A01201CC
:1001A000EEE5B023F5B0A3DAF1DBE702012412019A
:1001B000CCF590C280C281D28231DDC2822212018E
:1001C000CCF590D280C281D282C28222D297C280E4
:1001D000D281C2821201DDD2822097F622D2D3D2FE
:1001E000D47B327CFFDCFEDBFAC2D3C2D422D2D372
:1001F000D2D47B047C84DCFEDBFAC2D3C2D422D20C
:10020000D3D2D47A087BE17CFFDCFEDBFADAF6C2DB
:10021000D3C2D42249747320537475636B207769F9
:10022000746800596F7520466F72657665722E2E60
:1002300000536F2050726F6D69736520596F7500A0
:10024000576F6E74206C657420697420476F004985
:100250006C6C2074727573742074686500756E69B7
:1002600076657273652077696C6C00616C77617973
:1002700073204272696E6720004D6520746F2059AB
:100280006F752E2E2E2E2E2E000000000018180046
:1002900000000000183C3C1800000066FFFF7E3C98
:1002A000180066FFFF7E3C180066FFFF7E3C1800CA
:0102B000004D
:00000001FF
